{
  "_format": "hh-sol-artifact-1",
  "contractName": "UnionWallet",
  "sourceName": "contracts/UnionWallet.sol",
  "abi": [
    {
      "anonymous": false,
      "inputs": [
        {
          "indexed": false,
          "internalType": "uint8",
          "name": "version",
          "type": "uint8"
        }
      ],
      "name": "Initialized",
      "type": "event"
    },
    {
      "inputs": [
        {
          "internalType": "address",
          "name": "_address",
          "type": "address"
        }
      ],
      "name": "attachToIdentity",
      "outputs": [],
      "stateMutability": "nonpayable",
      "type": "function"
    },
    {
      "inputs": [
        {
          "internalType": "address",
          "name": "_address",
          "type": "address"
        }
      ],
      "name": "detachFromIdentity",
      "outputs": [],
      "stateMutability": "nonpayable",
      "type": "function"
    },
    {
      "inputs": [
        {
          "internalType": "address",
          "name": "_address",
          "type": "address"
        }
      ],
      "name": "resolveIdentity",
      "outputs": [
        {
          "internalType": "address",
          "name": "",
          "type": "address"
        }
      ],
      "stateMutability": "view",
      "type": "function"
    }
  ],
  "bytecode": "0x608060405234801561001057600080fd5b506108b2806100206000396000f3fe608060405234801561001057600080fd5b50600436106100415760003560e01c80635639c1381461004657806390c4184c14610062578063f7e17b7214610092575b600080fd5b610060600480360381019061005b91906105d2565b6100ae565b005b61007c600480360381019061007791906105d2565b6100bb565b604051610089919061060e565b60405180910390f35b6100ac60048036038101906100a791906105d2565b6101bd565b005b6100b88133610333565b50565b60008073ffffffffffffffffffffffffffffffffffffffff16600160008473ffffffffffffffffffffffffffffffffffffffff1673ffffffffffffffffffffffffffffffffffffffff16815260200190815260200160002060009054906101000a900473ffffffffffffffffffffffffffffffffffffffff1673ffffffffffffffffffffffffffffffffffffffff160361015557816101b6565b600160008373ffffffffffffffffffffffffffffffffffffffff1673ffffffffffffffffffffffffffffffffffffffff16815260200190815260200160002060009054906101000a900473ffffffffffffffffffffffffffffffffffffffff165b9050919050565b6101c6336100bb565b73ffffffffffffffffffffffffffffffffffffffff163373ffffffffffffffffffffffffffffffffffffffff1603610233576040517f08c379a000000000000000000000000000000000000000000000000000000000815260040161022a90610686565b60405180910390fd5b61023c816100bb565b73ffffffffffffffffffffffffffffffffffffffff1661025b336100bb565b73ffffffffffffffffffffffffffffffffffffffff16146102b1576040517f08c379a00000000000000000000000000000000000000000000000000000000081526004016102a890610718565b60405180910390fd5b6000600160008373ffffffffffffffffffffffffffffffffffffffff1673ffffffffffffffffffffffffffffffffffffffff16815260200190815260200160002060006101000a81548173ffffffffffffffffffffffffffffffffffffffff021916908373ffffffffffffffffffffffffffffffffffffffff16021790555050565b600073ffffffffffffffffffffffffffffffffffffffff16600160008473ffffffffffffffffffffffffffffffffffffffff1673ffffffffffffffffffffffffffffffffffffffff16815260200190815260200160002060009054906101000a900473ffffffffffffffffffffffffffffffffffffffff1673ffffffffffffffffffffffffffffffffffffffff1614610401576040517f08c379a00000000000000000000000000000000000000000000000000000000081526004016103f890610784565b60405180910390fd5b8073ffffffffffffffffffffffffffffffffffffffff168273ffffffffffffffffffffffffffffffffffffffff160361046f576040517f08c379a0000000000000000000000000000000000000000000000000000000008152600401610466906107f0565b60405180910390fd5b610478816100bb565b73ffffffffffffffffffffffffffffffffffffffff168273ffffffffffffffffffffffffffffffffffffffff16036104e5576040517f08c379a00000000000000000000000000000000000000000000000000000000081526004016104dc9061085c565b60405180910390fd5b6104ee816100bb565b600160008473ffffffffffffffffffffffffffffffffffffffff1673ffffffffffffffffffffffffffffffffffffffff16815260200190815260200160002060006101000a81548173ffffffffffffffffffffffffffffffffffffffff021916908373ffffffffffffffffffffffffffffffffffffffff1602179055505050565b600080fd5b600073ffffffffffffffffffffffffffffffffffffffff82169050919050565b600061059f82610574565b9050919050565b6105af81610594565b81146105ba57600080fd5b50565b6000813590506105cc816105a6565b92915050565b6000602082840312156105e8576105e761056f565b5b60006105f6848285016105bd565b91505092915050565b61060881610594565b82525050565b600060208201905061062360008301846105ff565b92915050565b600082825260208201905092915050565b7f43616e277420646574616368206964656e746974790000000000000000000000600082015250565b6000610670601583610629565b915061067b8261063a565b602082019050919050565b6000602082019050818103600083015261069f81610663565b9050919050565b7f4164647265737320646f6573206e6f742062656c6f6e6720746f20746869732060008201527f6964656e74697479000000000000000000000000000000000000000000000000602082015250565b6000610702602883610629565b915061070d826106a6565b604082019050919050565b60006020820190508181036000830152610731816106f5565b9050919050565b7f43616e2774206f7665727772697465206c696e6b000000000000000000000000600082015250565b600061076e601483610629565b915061077982610738565b602082019050919050565b6000602082019050818103600083015261079d81610761565b9050919050565b7f43616e27742061747461636820746f206d7973656c6600000000000000000000600082015250565b60006107da601683610629565b91506107e5826107a4565b602082019050919050565b60006020820190508181036000830152610809816107cd565b9050919050565b7f43616e27742061747461636820706172656e7420746f206368696c6400000000600082015250565b6000610846601c83610629565b915061085182610810565b602082019050919050565b6000602082019050818103600083015261087581610839565b905091905056fea264697066735822122010d552020d38e5cd389512d03bd9c2f060efabe176a4fa438676a5c70a7f0a8464736f6c63430008110033",
  "linkReferences": {},
  "deployedLinkReferences": {}
}